:1000000003EF02F0030E926E936A946AC26E800E42
:10001000C06E42EF02F0040EBA6E270EBB6E0F01E7
:10002000496B1E50040A000107E0070A09E0010AB3
:100030000BE0030A0BE00DD00C0E0F01576F00010F
:100040000C0E0F015D6F00010C0E666E0C0EBD6E86
:1000500000D045EF02F08E0E006E26C001F025C0E4
:1000600002F0036A015209E102C001F0026A080EBF
:10007000005E015202E1006A08D0D89001BE04D0AF
:10008000023601360006F9D7019E7DEF02F02550B9
:10009000D8B4A5D0316E2950D8B4A1D0315E05E3D3
:1000A0007F0E3126D8B09BD006D0810E315ED8A00D
:1000B00096D0D8B494D031C000F0016A026A036AC5
:1000C000306A26C02FF02F8E27C02EF028C02DF0CA
:1000D000190E316E2C502D5E0DE2010E2E5E0AE2DD
:1000E0002F5E08E2305E06E2302A2F2A2E2A2C509C
:1000F0002D2628D02B502E5E12E2010E2F5E0FE22D
:10010000305E0DE2302A2F2A2B502E262C502D2621
:1001100019E32E2A17E12F2A15E1302A13D02A508D
:1001200080092F5E0EE2010E305E0BE2302A2A506B
:1001300080092F262B502E26E9E32F2AE7E1302ACB
:10014000E5D70380312E01D00BD0D8902D362E3636
:100150002F363036D8900336023601363236BAD7CB
:1001600032A006D0D890013202320332323202D0AD
:10017000000635E032BE1ED0D8902D362E362F36F2
:1001800030362C502D5E07E2010E2E5E04E22F5E0B
:1001900002E2305E1AE32B502E5E05E2010E2F5E66
:1001A00002E2305E12E32A5080092F5E03E2010E64
:1001B000305E0BE3032A09E1022A07E1012A05E187
:1001C000002A0DE001320232033226C031F02A50FB
:1001D000311A31AE02D0018E06D0019E04D0006AE1
:1001E000016A026A036A8DEF02F03650070B006E57
:1001F0003630016E013201321F0E011601503824D3
:10020000E96E000E3920EA6E016A012A002A01D047
:100210000136002EFDD7375203E00150EF1203D014
:10022000011E0150EF1612003650D8B471D0006E86
:100230003A50D8B46DD0002604E3810E002668E25F
:1002400004D07F0E005E64E363E037C03EF03B50B5
:100250003E1A378E3B8E39503D02F4CF40F0385075
:100260003C02F4CF03F0F3CF3FF03D02F3504026C1
:10027000F4503F22000E032239503C02F350402636
:10028000F4503F22000E026A0322022237503D0240
:10029000F3503F26F4500322000E022237503C0256
:1002A000F3500326F4500222000E016A0122395055
:1002B0003B02F3503F26F4500322000E022201229B
:1002C00038503B02F3500326F4500222000E012264
:1002D00037503B02F3500226F4500122002A01BE9F
:1002E00005D03F360336023601360006000E3FAE1B
:1002F0000AD0032A02220122015005E1025003E143
:10030000035001E1002A3EBE018E3EAE019E04D0A4
:10031000006A016A026A036AE4EF01F08E0E006E61
:100320003650005E37C002F038C001F0028E005235
:1003300009E0D890025202E1015204E00232013297
:10034000002EF7D737AE05D0011E021E012AD8B401
:10035000022AEDEF01F02F5202E1000E01D0010E52
:100360002BC036F0376E0F0E396E890E386E3DDFBA
:100370002BC036F0376A0F0E396E920E386E35DFAD
:100380002F5202E0000E01D0010E2DC036F0376E64
:100390000F0E396E890E386E28DF2DC036F0376AA1
:1003A0000F0E396E920E386E20DF396A386A200ED1
:1003B000376E860E366E33C03DF032C03CF031C031
:1003C0003BF030C03AF030D703C039F002C038F00B
:1003D00001C037F000C036F0A1D702C035F001C02F
:1003E00034F029C0E9FF2AC0EAFF3530036E34300B
:1003F000026E033202323F0E031602C0EFFF03C04B
:10040000ECFFACEF02F0F86AD09E700ED36E9B9CAE
:100410009B9E0F01386B396B3A6B776A786A796A01
:10042000BE0E046E0F0E056E090E066E7C0E076E74
:100430000A0E086E7C0E096E670E0A6E0F0E0B6EAA
:100440000B0E0C6E7C0E0D6E0C0E0E6E7C0E0F6E77
:100450005E0E106E0F0E116E0D0E126E7C0E136E70
:100460000E0E146E7C0E156E580E166E0F0E176E55
:10047000130E186E7C0E196E140E1A6E7C0E1B6E07
:100480000001C0D5040E1E6EC6D51C90C2820D0E92
:10049000006E002EFED71D6A1D5003085FE31D503D
:1004A000060DF350036A040FE96E000E0320EA6E96
:1004B000EE52EE52EE52EE52ECCF23F0ED52EFCF71
:1004C00022F0ED52EFCF21F0ED52EFCF20F0ED52C0
:1004D000EFCF1FF0ED52EFCF1EF01D50010804E3E7
:1004E000000E1CB0010E03D0000E1CA0010E246EE5
:1004F000C4CF26F0C3CF25F0AED503C028F002C08C
:1005000027F001C026F000C025F02C6AC00E2B6E2B
:100510007F0E2A6E880E296EBAD503C028F002C05D
:1005200027F001C026F000C025F01EC029F01FC032
:100530002AF020C02BF021C02CF022C02DF023C0C7
:100540002EF024C02FF003C033F002C032F001C0FF
:1005500031F000C030F0FFD61D2A9ED780A209D00E
:1005600080B2FED7000E1CB0010E010A1C90E8B04C
:060570001C808CD7030083
:020000040030CA
:0E00000000E81E3C003B81000FC00FE00F40E7
:00000001FF
;PIC18F26K22
;CRC=611D  CREATED="07-abr.-24 18:20"
