:0400000029EF08F0EC
:08000800046ED8CF05F0E0CF33
:1000100006F00001E9CF0CF0EACF07F0E1CF08F0DD
:10002000E2CF09F0D9CF0AF0DACF0BF0F3CF12F01C
:10003000F4CF13F0FACF14F0F5CF15F0F6CF16F099
:10004000F7CF17F000C00EF001C00FF002C010F0A3
:1000500003C011F0F2AA30EF00F0F2B4BBEF01F0F0
:100060009DAA36EF00F09EBA6FEF01F00EC000F0CF
:100070000FC001F010C002F011C003F00CC0E9FF86
:1000800007C0EAFF078E08C0E1FF09C0E2FF0AC00F
:10009000D9FF0BC0DAFF12C0F3FF13C0F4FF14C086
:1000A000FAFF15C0F5FF16C0F6FF17C0F7FF0450A2
:1000B00006C0E0FF05C0D8FF100086518819800BEC
:1000C0008A6F86AF05D0851F861F852BD8B4862BF7
:1000D00088AF05D0871F881F872BD8B4882B855100
:1000E0008703F3CF01F0F4CF00F08803F35000262C
:1000F00086518703F3500020026E8AAF05D0011E9F
:10010000021E012AD8B4022AF1EF00F0836B816B42
:100110000A0E826F806B7F6B7D517E1104E1000EB1
:10012000016E026EDBD08351832B7D25E96E000EBC
:100130007E21EA6EEFCF84F084512D080CE1010E90
:10014000816F8351832B7D25E96E000E7E21EA6E3F
:10015000EFCF84F00CD084512B0809E18351832B1D
:100160007D25E96E000E7E21EA6EEFCF84F084518A
:100170002F08D8B0A5D084513908D8A0A1D0845177
:1001800030081EE183517D25E96E000E7E21EA6E66
:10019000EF50780809E083517D25E96E000E7E213D
:1001A000EA6EEF5058080CE1100E826F832B8351DA
:1001B000832B7D25E96E000E7E21EA6EEFCF84F061
:1001C00082510A0820E184512F081CE28451390829
:1001D00019E3866B0A0E856F80C088F07FC087F0B8
:1001E0006CD7300E845D01247F6F000E0220806F7B
:1001F0008351832B7D25E96E000E7E21EA6EEFCFC1
:1002000084F0E1D75DD0825110085AE18451600832
:1002100006E284517A0803E38451DF0B01D0845154
:10022000846F84512F0803E28451390806E2845117
:10023000400846E28451460843E384512F0817E200
:100240008451390814E37F35856F8035866F853793
:1002500086378537863785378637F00E8517300E17
:10026000845D85257F6F000E8621806F14D07F35D9
:10027000856F8035866F8537863785378637853732
:100280008637F00E8517410E845D0A0F85257F6F36
:10029000000E8621806F8351832B7D25E96E000E31
:1002A0007E21EA6EEFCF84F08451600806E284512B
:1002B0007A0803E38451DF0B01D08451846FB1D7F6
:1002C00082510A0807E1812D05D07F1F801F7F2BF7
:1002D000D8B4802B7FC001F080C002F012009EAA2B
:1002E000FED7AECF6AF06A512A0842E1EA6A6B0E85
:1002F000E96EED6A9EAAFED7AECFECFF0D0EEF5C65
:10030000F9E1EC6AEA6A730EE96EED6A9EAAFED71D
:10031000AECFECFF0D0EEF5CF9E1EC6AEA6A780E05
:10032000E96EED6A9EAAFED7AECFECFF0D0EEF5C34
:10033000F9E1EC6A7E6B6B0E7D6FE8DE02C038F08F
:1003400001C037F07E6B730E7D6FE0DE01C039F0C7
:100350007E6B780E7D6FDADE01C03AF03BB205D0DD
:100360009E0ED76E570ED66ED58E3B843B823B8059
:100370009E9A36EF00F03BA406D03B949E0ED76EBB
:10038000570ED66E02D0D59E3B92F29436EF00F017
:10039000926A020E936E800E946EE00EF26E030E61
:1003A000D56E9E0ED76E570ED66E9F8A9D8AD08EC2
:1003B000F19476EF08F043504502F3CF01F0F4CF0B
:1003C00000F04602F350002644504502F35000204E
:1003D000026E1200040EBA6E4F0EBB6E0F01496B17
:1003E0000C0E576F5D6F666EBD6E3F6A3F50010821
:1003F0002EE3406A4050010828E3446A3FC043F0BE
:10040000466A0C0E456E0001D6DF02C042F001C004
:1004100041F0446A40C043F0466A060E456ECBDFA9
:1004200001504126025042223D504124E96E3E5087
:100430004220EA6EECCF03F0ED52EFCFE9FF03C0AC
:10044000EAFFEF6A402A0F01D5D73F2ACFD7000134
:100450007BEF08F0EA6A3D0EE96EEF500EE0050E04
:10046000016E006A002EFED7012EFBD72E0E006E05
:10047000002EFED700D0EF2EF2D790EF08F05850A4
:10048000070B006E5830016E013201321F0E01164B
:1004900001505A24E96E000E5B20EA6E016A012ABF
:1004A000002A01D00136002EFDD7595203E0015039
:1004B000EF1203D0011E0150EF161200020E4D2460
:1004C000E96E000E4E20EA6EECCF50F0ED52EFCF09
:1004D0004FF04FC058F0010E596E0F0E5B6E890E33
:1004E0005A6ECDDF4FC058F0596A0F0E5B6E920EF8
:1004F0005A6EC5DF040E4D24E96E000E4E20EA6EE2
:10050000ECCF50F0ED52EFCF4FF04FC058F0010E4E
:10051000596E0F0E5B6E890E5A6EB1DF4FC058F0E8
:10052000596A0F0E5B6E920E5A6EA9DF12008E0E84
:10053000006E50C001F04FC002F0036A50AE05D00B
:10054000011E021E022A01E1012A015209E102C034
:1005500001F0026A080E005E015202E1006A0AD050
:10056000D89001BE04D0023601360006F9D750BE3D
:1005700001D0019E12005650D8B471D0006E5A506E
:10058000D8B46DD0002604E3810E002668E204D0C2
:100590007F0E005E64E363E057C05EF05B505E1A5E
:1005A000578E5B8E59505D02F4CF60F058505C025C
:1005B000F4CF03F0F3CF5FF05D02F3506027F45007
:1005C0005F22000E032259505C02F3506027F45062
:1005D0005F22000E026A0322022257505D02F3508E
:1005E0005F26F4500322000E022257505C02F350A3
:1005F0000326F4500222000E016A012259505B02C8
:10060000F3505F26F4500322000E022201225850BC
:100610005B02F3500326F4500222000E01225750D1
:100620005B02F3500226F4500122002A01BE05D0DD
:100630005F360336023601360006000E5FAE0AD082
:10064000032A02220122015005E1025003E1035076
:1006500001E1002A5EBE018E5EAE019E04D0006AFA
:10066000016A026A036A12005A50D8B4A5D0666FB4
:100670005E50D8B4A1D0665F05E37F0E6627D8B080
:100680009BD006D0810E665FD8A096D0D8B494D007
:1006900066C000F0016A026A036A656B5BC064F0C1
:1006A000648F5CC063F05DC062F0190E666F6151CB
:1006B000625F0DE2010E635F0AE2645F08E2655F5C
:1006C00006E2652B642B632B6151622728D06051B1
:1006D000635F12E2010E645F0FE2655F0DE2652B5E
:1006E000642B605163276151622719E3632B17E183
:1006F000642B15E1652B13D05F508009645F0EE217
:10070000010E655F0BE2652B5F5080096427605125
:100710006327E9E3642BE7E1652BE5D70380662FC8
:1007200001D00BD0D8906237633764376537D890E3
:100730000336023601366737BAD767A106D0D8909C
:10074000013202320332673302D0000635E067BF60
:100750001ED0D89062376337643765376151625F66
:1007600007E2010E635F04E2645F02E2655F1AE381
:100770006051635F05E2010E645F02E2655F12E3B0
:100780005F508009645F03E2010E655F0BE3032A9B
:1007900009E1022A07E1012A05E1002A0DE0013200
:1007A000023203325BC066F05F50661B66AF02D058
:1007B000018E06D0019E04D0006A016A026A036AB3
:1007C0001200800ED8B25F1A646B656B5BC063F079
:1007D0005F50631B5A50D8B4DCD0626F006E5E501D
:1007E000D8B4E0D0625FD8B481D03DE35FC068F098
:1007F000688F60C067F061C066F0656BD890683341
:10080000673366336533622FF8D763AF03D06481F3
:10081000DDD0649162916489EA6A5D0EE96EE9D087
:10082000649963BF0AD062A113D06833673366331B
:100830006533002AD8B4C5D00BD068BF0CD0D8908F
:1008400065376637673768370006D8B4BAD0F5D74A
:10085000648D6BD0649D5BC063F05BAE02D0688F2B
:10086000A9D0689FA7D05EC062F05EC000F05A5069
:10087000625F5BC068F0688F5CC067F05DC066F067
:10088000656BD8906833673366336533622FF8D76A
:1008900063AF03D064839AD064936291648BEA6AF5
:1008A000610EE96EA6D0649B63BF0AD062A113D02B
:1008B0006833673366336533002AD8B482D00BD0EF
:1008C00068BF0CD0D8906537663767376837000641
:1008D000D8B477D0F5D7648F28D0649F5FC063F019
:1008E0005FAE02D0688F66D0689F64D05FC068F04A
:1008F000688F60C067F061C066F063AF04D0689F26
:10090000648564D06495656B6291EA6A5D0EE96EF8
:1009100070D063BF1CD05BC063F062A106D06833A7
:10092000673366336533002A4CE065AF0BD0662B26
:1009300009E1672B07E1682B05E16833673366330C
:10094000002A3FE064BD86D764BFC7D71CD0800EA5
:10095000681B68AF04D03AD05FC063F00AD05BC0B8
:1009600063F0685306E1675304E1665302E1006AED
:1009700021D068BF08D0D8906537663767376837A9
:10098000002EF7D71ED063AF02D0688F13D0689FB8
:1009900011D05EC000F05FC068F060C067F061C059
:1009A00066F008D05AC000F05BC068F05CC067F029
:1009B0005DC066F068C001F067C002F066C003F079
:1009C00034D0006A016A026A036A2FD0656B661F21
:1009D000671F681F651F652B05E1662B03E1672B09
:1009E00001E1682B64B115D764B356D764B58AD7D3
:1009F000B3D7EF50662705E3672B03E1682BD8B424
:100A00006281ED52EF50672703E3682BD8B462810F
:100A1000ED52EF50EFBE01D0800A6827D8B0628156
:100A200064B9FED664BB3FD774D7120057C05EF0DE
:100A30005B505E1A5EAE05D0D894D89057BED88071
:100A40002FD057C05EF05AC05FF056505F5E06E090
:100A50005EAE26D0D850010AD86E22D05BC05FF0BF
:100A600057505F5E06E05EAE1BD0D850010AD86ECC
:100A700017D05CC05FF058505F5E06E05EAE10D0ED
:100A8000D850010AD86E0CD05DC05FF059505F5E3F
:100A900006E05EAE05D0D850010AD86E01D0D890DD
:100AA0007CEF05F08E0E006E5650005E57C002F0CF
:100AB00058C001F0028E005209E0D890025202E1C3
:100AC000015204E002320132002EF7D757AE05D0B2
:100AD000011E021E012AD8B4022A11EF06F0596A3B
:100AE000586A576A566A52C05DF051C05CF050C0F7
:100AF0005BF04FC05AF09AD701E202E1010E01D03B
:100B0000000E5390E8B05380020E4D24E96E000EA3
:100B10004E20EA6EECCF57F0ED52EFCF56F0000EBC
:100B200053B0010E56C058F0596E0F0E5B6E890E11
:100B30005A6EA5DC56C058F0596A0F0E5B6E920EC5
:100B40005A6E9DDC040E4D24E96E000E4E20EA6EB6
:100B5000ECCF57F0ED52EFCF56F0000E53A0010E40
:100B600056C058F0596E0F0E5B6E890E5A6E87DCB8
:100B700056C058F0596A0F0E5B6E920E5A6E7FDCAB
:100B80004FC000F050C001F051C002F052C003F05D
:100B9000019E596A800E586E150E576E870E566E5E
:100BA00052C05DF051C05CF001C05BF04FC05AF024
:100BB000E2DC03C059F002C058F001C057F000C099
:100BC00056F003C05DF002C05CF001C05BF000C0F5
:100BD0005AF0616B606B480E5F6E850E5E6E44DD91
:100BE00003C059F002C058F001C057F000C056F0E1
:100BF000D89203C05DF002C05CF001C05BF000C0A1
:100C00005AF0616B606B280E5F6E830E5E6ED9DDED
:100C100003C059F002C058F001C057F000C056F0B0
:100C200041D702C055F001C054F04DC0E9FF4EC09D
:100C3000EAFFECCF03F0ED52EFCFE9FF03C0EAFF8C
:100C40005530036E5430026E033202323F0E0316EB
:100C500002C0EFFF1200020E3D24E96E000E3E209E
:100C6000EA6EEF3C3AD0030E3D24E96E000E3E20C2
:100C7000EA6EEF3C32D03FC001F040C003F040C00C
:100C80004EF03FC04DF01ADC060E3F24016E000E00
:100C90004020036E01C04BF04C6E4E6E01C04DF013
:100CA0000DDC0C0E3F24016E000E4020036E01C0CF
:100CB0004BF04C6E4E6E01C04DF000DC120E3F2426
:100CC000016E000E4020036E01C04BF04C6E4E6E64
:100CD00001C04DF05EEC02F0BAD1030E3D24E96E86
:100CE000000E3E20EA6EEF504C6A4B6E020E3D2421
:100CF000E96E000E3E20EA6EEF504B5C496E000E2E
:100D00004C584A6E3DC0E9FF3EC0EAFFECCF4CF0C4
:100D1000ED52EFCF4BF04CBEA4D04AC050F049C0CA
:100D20004FF005DC03C059F002C058F001C057F085
:100D300000C056F05D6A5C6A480E5B6E850E5A6EA6
:100D40001ADC03C04EF002C04DF001C04CF000C0F0
:100D50004BF003C05DF002C05CF001C05BF000C06E
:100D60005AF0616B606B7F0E5F6E860E5E6E7CDC90
:100D700003C044F002C043F001C042F000C041F0A3
:100D8000596A586A576A800E566E44C05DF043C077
:100D90005CF042C05BF041C05AF0BBEC02F003C013
:100DA0004EF002C04DF001C04CF000C04BF03DC011
:100DB000E9FF3EC0EAFFECCF03F0ED52EFCF4FF07A
:100DC00003C050F097EC02F04EC059F04DC058F0FF
:100DD0004CC057F04BC056F003C05DF002C05CF051
:100DE00001C05BF000C05AF0BBEC02F003C04EF053
:100DF00002C04DF001C04CF000C04BF003C05DF0EC
:100E000002C05CF001C05BF000C05AF0616BFE0EE6
:100E1000606F7F0E5F6E8D0E5E6E26DCEACF4CF04B
:100E2000E9CF4BF0D88244C05DF043C05CF042C0D3
:100E30005BF041C05AF003C061F002C060F001C035
:100E40005FF000C05EF0BDDC4CC0EAFF4BC0E9FFC4
:100E500003C048F002C047F001C046F000C045F0B2
:100E6000A6D04AC050F049C04FF097EC02F003C042
:100E700059F002C058F001C057F000C056F05D6A4A
:100E80005C6A480E5B6E850E5A6EBBEC02F003C0C6
:100E90004EF002C04DF001C04CF000C04BF003C05A
:100EA0005DF002C05CF001C05BF000C05AF0616B05
:100EB000606B7F0E5F6E860E5E6E34EC03F003C0D7
:100EC00048F002C047F001C046F000C045F0596A42
:100ED000586A576A800E566E48C05DF047C05CF095
:100EE00046C05BF045C05AF0BBEC02F003C04EF0C8
:100EF00002C04DF001C04CF000C04BF03DC0E9FF16
:100F00003EC0EAFFECCF03F0ED52EFCF4FF003C04D
:100F100050F097EC02F04EC059F04DC058F04CC064
:100F200057F04BC056F003C05DF002C05CF001C04A
:100F30005BF000C05AF0BBEC02F003C04EF002C000
:100F40004DF001C04CF000C04BF003C05DF002C09A
:100F50005CF001C05BF000C05AF0616B606B800E0A
:100F60005F6E8E0E5E6E34EC03F0EACF4CF0E9CF8C
:100F70004BF0D88248C05DF047C05CF046C05BF0E3
:100F800045C05AF003C061F002C060F001C05FF0DC
:100F900000C05EF016DC4CC0EAFF4BC0E9FF03C0A6
:100FA00044F002C043F001C042F000C041F03FC035
:100FB00001F040C003F040C04EF03FC04DF044C0CF
:100FC00052F043C051F042C050F041C04FF087DDB5
:100FD0000C0E3F24016E000E4020036E01C04BF04A
:100FE0004C6E4E6E01C04DF044C052F043C051F003
:100FF00042C050F041C04FF072DD060E3F24016E3A
:10100000000E4020036E01C04BF04C6E4E6E01C0CE
:101010004DF048C052F047C051F046C050F045C0B6
:101020004FF05DDD120E3F24016E000E4020036E76
:1010300001C04BF04C6E4E6E01C04DF048C052F0F6
:1010400047C051F046C050F045C04FF048DDB5EF05
:1010500008F0F86AD09E078E700ED36E9B9C9B9E04
:10106000B886A00EAF6E010EB06EA60EAC6E900EDE
:10107000AB6E0F01386B396B3A6B776A786A796AB5
:1010800013D0020019000018001FBE0F0B7C0C7C4F
:10109000670F0E7C0F7C5E0F047C057C580F067C6E
:1010A000077C01003B000000000EF86E100EF76E8A
:1010B000820EF66E0900F550006E000A13E009007A
:1010C000F550016EE8BE05D03F0BEA6E0900F5CF82
:1010D000E9FF01BC090001AC0900F5CFEEFF004EAD
:1010E000E9D7F9D7F86A0001C8EF01F03E6A1F0E90
:1010F0003D6EEAEF01F03C6A3BB214D03C50C808A8
:1011000008E1000E89B0010E010A8990E8B08980DB
:101110003C6A3C503C2A010E3D6E00012AEF02F071
:101120000001EAD789803BB216D04E6A1F0E4D6E81
:1011300000015EEC02F04E6A250E4D6E5EEC02F090
:101140004E6A2B0E4D6E5EEC02F04E6A310E4D6E05
:101150005EEC02F0D0D73BA009D03E6A370E3D6E60
:10116000406A1F0E3F6E000176D53B90DCD703002E
:020000040030CA
:0E00000000E81E3C003F81000FC00FE00F40E3
:00000001FF
;PIC18F26K22
;CRC=B9EB  CREATED="28-abr.-24 23:23"
