:040000001BEF08F0FA
:08000800046ED8CF05F0E0CF33
:1000100006F00001E9CF0CF0EACF07F0E1CF08F0DD
:10002000E2CF09F0D9CF0AF0DACF0BF0F3CF12F01C
:10003000F4CF13F0FACF14F0F5CF15F0F6CF16F099
:10004000F7CF17F000C00EF001C00FF002C010F0A3
:1000500003C011F09DAA30EF00F09EBA69EF01F0E5
:100060000EC000F00FC001F010C002F011C003F08C
:100070000CC0E9FF07C0EAFF078E08C0E1FF09C016
:10008000E2FF0AC0D9FF0BC0DAFF12C0F3FF13C0B2
:10009000F4FF14C0FAFF15C0F5FF16C0F6FF17C035
:1000A000F7FF045006C0E0FF05C0D8FF10009051D4
:1000B0009219800B946F90AF05D08F1F901F8F2BDC
:1000C000D8B4902B92AF05D0911F921F912BD8B42A
:1000D000922B8F519103F3CF01F0F4CF00F09203F4
:1000E000F350002690519103F3500020026E94AF1C
:1000F00005D0011E021E012AD8B4022AEBEF00F03F
:100100008D6B8B6B0A0E8C6F8A6B896B8751881194
:1001100004E1000E016E026EDBD08D518D2B872520
:10012000E96E000E8821EA6EEFCF8EF08E512D0819
:100130000CE1010E8B6F8D518D2B8725E96E000E22
:100140008821EA6EEFCF8EF00CD08E512B0809E19A
:100150008D518D2B8725E96E000E8821EA6EEFCF39
:100160008EF08E512F08D8B0A5D08E513908D8A066
:10017000A1D08E5130081EE18D518725E96E000E09
:100180008821EA6EEF50780809E08D518725E96EE5
:10019000000E8821EA6EEF5058080CE1100E8C6FAB
:1001A0008D2B8D518D2B8725E96E000E8821EA6EEF
:1001B000EFCF8EF08C510A0820E18E512F081CE2FF
:1001C0008E51390819E3906B0A0E8F6F8AC092F036
:1001D00089C091F06CD7300E8E5D0124896F000EBE
:1001E00002208A6F8D518D2B8725E96E000E8821A4
:1001F000EA6EEFCF8EF0E1D75DD08C5110085AE156
:100200008E51600806E28E517A0803E38E51DF0BAF
:1002100001D08E518E6F8E512F0803E28E51390816
:1002200006E28E51400846E28E51460843E38E5165
:100230002F0817E28E51390814E389358F6F8A35FC
:10024000906F8F3790378F3790378F379037F00E0A
:100250008F17300E8E5D8F25896F000E90218A6F6B
:1002600014D089358F6F8A35906F8F3790378F37DD
:1002700090378F379037F00E8F17410E8E5D0A0F33
:100280008F25896F000E90218A6F8D518D2B8725C8
:10029000E96E000E8821EA6EEFCF8EF08E51600875
:1002A00006E28E517A0803E38E51DF0B01D08E51A6
:1002B0008E6FB1D78C510A0807E18B2D05D0891FAD
:1002C0008A1F892BD8B48A2B89C001F08AC002F01A
:1002D00012009EAAFED7AECF6CF06C512A084EE1F8
:1002E000EA6A6D0EE96EED6A9EAAFED7AECFECFF0C
:1002F0000D0EEF5CF9E1EC6AEA6A750EE96EED6AE3
:100300009EAAFED7AECFECFF0D0EEF5CF9E1EC6AD2
:10031000EA6A7D0EE96EED6A9EAAFED7AECFECFFCB
:100320000D0EEF5CF9E1EC6AEA6A820EE96EED6AA5
:100330009EAAFED7AECFECFF0D0EEF5CF9E1EC6AA2
:10034000886B6D0E876FDCDE02C038F001C037F0BD
:10035000886B750E876FD4DE02C03AF001C039F0A9
:10036000886B7D0E876FCCDE01C03BF0886B820E00
:10037000876FC6DE01C03CF03D823D809E9A30EF23
:1003800000F0926A020E936E800E946EC00EF26EB2
:100390009F8A9D8AD08E68EF08F045504702F3CFC0
:1003A00001F0F4CF00F04802F35000264650470217
:1003B000F3500020026E1200040EBA6E4F0EBB6E98
:1003C0000F01496B0C0E576F5D6F666EBD6E416A13
:1003D000415001082EE3426A4250010828E3466A70
:1003E00041C045F0486A0C0E476E0001D6DF02C0DE
:1003F00044F001C043F0466A42C045F0486A060E28
:10040000476ECBDF01504326025044223F50432425
:10041000E96E40504420EA6EECCF03F0ED52EFCF8E
:10042000E9FF03C0EAFFEF6A422A0F01D5D7412A4C
:10043000CFD700016DEF08F0EA6A3F0EE96EEF508A
:100440000EE0050E016E006A002EFED7012EFBD7CE
:100450002E0E006E002EFED700D0EF2EF2D782EFC8
:1004600008F05A50070B006E5A30016E013201320B
:100470001F0E011601505C24E96E000E5D20EA6E2D
:10048000016A012A002A01D00136002EFDD75B52F5
:1004900003E00150EF1203D0011E0150EF161200CD
:1004A000020E4F24E96E000E5020EA6EECCF52F09F
:1004B000ED52EFCF51F051C05AF0010E5B6E0F0EAE
:1004C0005D6E890E5C6ECDDF51C05AF05B6A0F0E17
:1004D0005D6E920E5C6EC5DF040E4F24E96E000E59
:1004E0005020EA6EECCF52F0ED52EFCF51F051C0F8
:1004F0005AF0010E5B6E0F0E5D6E890E5C6EB1DF01
:1005000051C05AF05B6A0F0E5D6E920E5C6EA9DFF1
:1005100012008E0E006E52C001F051C002F0036A4C
:1005200052AE05D0011E021E022A01E1012A01522B
:1005300009E102C001F0026A080E005E015202E108
:10054000006A0AD0D89001BE04D0023601360006F7
:10055000F9D752BE01D0019E12005850D8B471D0C4
:10056000006E5C50D8B46DD0002604E3810E0026E6
:1005700068E204D07F0E005E64E363E059C060F07F
:100580005D50601B598E5D8E5B505F02F4CF62F050
:100590005A505E02F4CF03F0F3CF61F05F02F350E4
:1005A0006227F4506123000E03225B505E02F35079
:1005B0006227F4506123000E026A0322022259507E
:1005C0005F02F3506127F4500322000E02225950BB
:1005D0005E02F3500326F4500222000E016A01224B
:1005E0005B505D02F3506127F4500322000E02229B
:1005F00001225A505D02F3500326F4500222000EED
:10060000012259505D02F3500226F4500122002AC3
:1006100001BE05D061370336023601360006000EF2
:1006200061AF0AD0032A02220122015005E10250E3
:1006300003E1035001E1002A60BF018E60AF019E1B
:1006400004D0006A016A026A036A12005C50D8B4DE
:10065000A5D0686F6051D8B4A1D0685F05E37F0E64
:100660006827D8B09BD006D0810E685FD8A096D0FE
:10067000D8B494D068C000F0016A026A036A676B5C
:100680005DC066F0668F5EC065F05FC064F0190EF5
:10069000686F6351645F0DE2010E655F0AE2665F99
:1006A00008E2675F06E2672B662B652B63516427C0
:1006B00028D06251655F12E2010E665F0FE2675F4C
:1006C0000DE2672B662B625165276351642719E39E
:1006D000652B17E1662B15E1672B13D0615180095B
:1006E000665F0EE2010E675F0BE2672B61518009C6
:1006F000662762516527E9E3662BE7E1672BE5D7BB
:100700000380682F01D00BD0D890643765376637E7
:100710006737D8900336023601366937BAD769A1F0
:1007200006D0D890013202320332693302D000067B
:1007300035E069BF1ED0D8906437653766376737B4
:100740006351645F07E2010E655F04E2665F02E2E7
:10075000675F1AE36251655F05E2010E665F02E2C0
:10076000675F12E361518009665F03E2010E675F14
:100770000BE3032A09E1022A07E1012A05E1002A25
:100780000DE00132023203325DC068F06151681B36
:1007900068AF02D0018E06D0019E04D0006A016AC3
:1007A000026A036A1200800ED8B2611B666B676B27
:1007B0005DC065F06151651B5C50D8B4DCD0646FDE
:1007C000006E6051D8B4E0D0645FD8B481D03DE30E
:1007D00061C06AF06A8F62C069F063C068F0676BDD
:1007E000D8906A33693368336733642FF8D765AFBD
:1007F00003D06681DDD0669164916689EA6A5F0EF6
:10080000E96EE9D0669965BF0AD064A113D06A3356
:10081000693368336733002AD8B4C5D00BD06ABFB8
:100820000CD0D8906737683769376A370006D8B474
:10083000BAD0F5D7668D6BD0669D5DC065F05DAEB4
:1008400002D06A8FA9D06A9FA7D060C064F060C050
:1008500000F05C50645F5DC06AF06A8F5EC069F052
:100860005FC068F0676BD8906A3369336833673369
:10087000642FF8D765AF03D066839AD066936491EE
:10088000668BEA6A630EE96EA6D0669B65BF0AD0E6
:1008900064A113D06A33693368336733002AD8B44C
:1008A00082D00BD06ABF0CD0D890673768376937D1
:1008B0006A370006D8B477D0F5D7668F28D0669F00
:1008C00061C065F061AF02D06A8F66D06A9F64D064
:1008D00061C06AF06A8F62C069F063C068F065AF9A
:1008E00004D06A9F668564D06695676B6491EA6AF6
:1008F0005F0EE96E70D065BF1CD05DC065F064A16D
:1009000006D06A33693368336733002A4CE067AF37
:100910000BD0682B09E1692B07E16A2B05E16A33EB
:1009200069336833002A3FE066BD86D766BFC7D704
:100930001CD0800E6A1B6AAF04D03AD061C065F04B
:100940000AD05DC065F06A5306E1695304E168535B
:1009500002E1006A21D06ABF08D0D89067376837B3
:1009600069376A37002EF7D71ED065AF02D06A8F7D
:1009700013D06A9F11D060C000F061C06AF062C0FD
:1009800069F063C068F008D05CC000F05DC06AF038
:100990005EC069F05FC068F06AC001F069C002F033
:1009A00068C003F034D0006A016A026A036A2FD07B
:1009B000676B681F691F6A1F671F672B05E1682B3C
:1009C00003E1692B01E16A2B66B115D766B356D7EF
:1009D00066B58AD7B3D7EF50682705E3692B03E1E3
:1009E0006A2BD8B46481ED52EF50692703E36A2B78
:1009F000D8B46481ED52EF50EFBE01D0800A6A276F
:100A0000D8B0648166B9FED666BB3FD774D71200F2
:100A100059C060F05D50601B60AF05D0D894D8908D
:100A200059BED8802FD059C060F05CC061F05850DA
:100A3000615F06E060AF26D0D850010AD86E22D0A0
:100A40005DC061F05950615F06E060AF1BD0D850C7
:100A5000010AD86E17D05EC061F05A50615F06E09F
:100A600060AF10D0D850010AD86E0CD05FC061F0D2
:100A70005B50615F06E060AF05D0D850010AD86EC8
:100A800001D0D8906EEF05F08E0E006E5850005ECB
:100A900059C002F05AC001F0028E005209E0D8900D
:100AA000025202E1015204E002320132002EF7D775
:100AB00059AE05D0011E021E012AD8B4022A03EF46
:100AC00006F05B6A5A6A596A586A54C05FF053C0AC
:100AD0005EF052C05DF051C05CF09AD701E202E1D5
:100AE000010E01D0000E5590E8B05580020E4F2443
:100AF000E96E000E5020EA6EECCF59F0ED52EFCFC8
:100B000058F0000E55B0010E58C05AF05B6E0F0E33
:100B10005D6E890E5C6EA5DC58C05AF05B6A0F0EE4
:100B20005D6E920E5C6E9DDC040E4F24E96E000E2D
:100B30005020EA6EECCF59F0ED52EFCF58F0000E96
:100B400055A0010E58C05AF05B6E0F0E5D6E890EF7
:100B50005C6E87DC58C05AF05B6A0F0E5D6E920EB9
:100B60005C6E7FDC51C000F052C001F053C002F057
:100B700054C003F0019E5B6A800E5A6E150E596ECA
:100B8000870E586E54C05FF053C05EF001C05DF038
:100B900051C05CF0E2DC03C05BF002C05AF001C05F
:100BA00059F000C058F003C05FF002C05EF001C011
:100BB0005DF000C05CF0636B626B480E616F850E88
:100BC000606F44DD03C05BF002C05AF001C059F011
:100BD00000C058F0D89203C05FF002C05EF001C0C0
:100BE0005DF000C05CF0636B626B280E616F830E7A
:100BF000606FD9DD03C05BF002C05AF001C059F04C
:100C000000C058F041D702C057F001C056F04FC0A5
:100C1000E9FF50C0EAFFECCF03F0ED52EFCFE9FF60
:100C200003C0EAFF5730036E5630026E03320232C1
:100C30003F0E031602C0EFFF1200040E3F24E96EC0
:100C4000000E4020EA6EEF3C3AD0050E3F24E96EDC
:100C5000000E4020EA6EEF3C32D041C001F042C0AD
:100C600003F042C050F041C04FF01ADC060E4124A0
:100C7000016E000E4220036E01C04DF04E6E506EAC
:100C800001C04FF00DDC0C0E4124016E000E42201D
:100C9000036E01C04DF04E6E506E01C04FF000DC8F
:100CA000120E4124016E000E4220036E01C04DF071
:100CB0004E6E506E01C04FF050EC02F0BAD1050EEE
:100CC0003F24E96E000E4020EA6EEF504E6A4D6EF2
:100CD000040E3F24E96E000E4020EA6EEF504D5C9A
:100CE0004B6E000E4E584C6E3FC0E9FF40C0EAFF0D
:100CF000ECCF4EF0ED52EFCF4DF04EBEA4D04CC035
:100D000052F04BC051F005DC03C05BF002C05AF05A
:100D100001C059F000C058F05F6A5E6A480E5D6E0F
:100D2000850E5C6E1ADC03C050F002C04FF001C0AB
:100D30004EF000C04DF003C05FF002C05EF001C095
:100D40005DF000C05CF0636B626B7F0E616F860EBE
:100D5000606F7CDC03C046F002C045F001C044F087
:100D600000C043F05B6A5A6A596A800E586E46C0EA
:100D70005FF045C05EF044C05DF043C05CF0ADEC98
:100D800002F003C050F002C04FF001C04EF000C0AE
:100D90004DF03FC0E9FF40C0EAFFECCF03F0ED5259
:100DA000EFCF51F003C052F089EC02F050C05BF07D
:100DB0004FC05AF04EC059F04DC058F003C05FF01C
:100DC00002C05EF001C05DF000C05CF0ADEC02F06E
:100DD00003C050F002C04FF001C04EF000C04DF013
:100DE00003C05FF002C05EF001C05DF000C05CF0C7
:100DF000636BFE0E626F7F0E616F8D0E606F26DC7F
:100E0000EACF4EF0E9CF4DF0D88246C05FF045C042
:100E10005EF044C05DF043C05CF003C063F002C00C
:100E200062F001C061F000C060F0BDDC4EC0EAFFBE
:100E30004DC0E9FF03C04AF002C049F001C048F0CC
:100E400000C047F0A6D04CC052F04BC051F089EC26
:100E500002F003C05BF002C05AF001C059F000C0BC
:100E600058F05F6A5E6A480E5D6E850E5C6EADEC92
:100E700002F003C050F002C04FF001C04EF000C0BD
:100E80004DF003C05FF002C05EF001C05DF000C035
:100E90005CF0636B626B7F0E616F860E606F26EC99
:100EA00003F003C04AF002C049F001C048F000C09E
:100EB00047F05B6A5A6A596A800E586E4AC05FF002
:100EC00049C05EF048C05DF047C05CF0ADEC02F098
:100ED00003C050F002C04FF001C04EF000C04DF012
:100EE0003FC0E9FF40C0EAFFECCF03F0ED52EFCF87
:100EF00051F003C052F089EC02F050C05BF04FC0DB
:100F00005AF04EC059F04DC058F003C05FF002C017
:100F10005EF001C05DF000C05CF0ADEC02F003C01B
:100F200050F002C04FF001C04EF000C04DF003C0C1
:100F30005FF002C05EF001C05DF000C05CF0636B6A
:100F4000626B800E616F8E0E606F26EC03F0EACF4D
:100F50004EF0E9CF4DF0D8824AC05FF049C05EF054
:100F600048C05DF047C05CF003C063F002C062F0AF
:100F700001C061F000C060F016DC4EC0EAFF4DC059
:100F8000E9FF03C046F002C045F001C044F000C0D4
:100F900043F041C001F042C003F042C050F041C0F4
:100FA0004FF046C054F045C053F044C052F043C027
:100FB00051F087DD0C0E4124016E000E4220036EBD
:100FC00001C04DF04E6E506E01C04FF046C054F05F
:100FD00045C053F044C052F043C051F072DD060EDC
:100FE0004124016E000E4220036E01C04DF04E6E92
:100FF000506E01C04FF04AC054F049C053F048C091
:1010000052F047C051F05DDD120E4124016E000E1A
:101010004220036E01C04DF04E6E506E01C04FF085
:101020004AC054F049C053F048C052F047C051F094
:1010300048DD8EEF08F0F86AD09E078E700ED36EF2
:101040009B9C9B9EB886A00EAF6E010EB06EA60E46
:10105000AC6E900EAB6E0F01386B396B3A6B776AE2
:10106000786A796A13D0020019000018001FBE0FB9
:101070000B7C0C7C670F0E7C0F7C5E0F047C057C68
:10108000580F067C077C01003D000000000EF86E42
:10109000100EF76E660EF66E0900F550006E000A2F
:1010A00013E00900F550016EE8BE05D03F0BEA6E73
:1010B0000900F5CFE9FF01BC090001AC0900F5CF3B
:1010C000EEFF004EE9D7F9D7F86A0001C1EF01F051
:1010D000406A1F0E3F6EDCEF01F03E6A3DB214D055
:1010E0003E50C80808E1000E89B0010E010A89903F
:1010F000E8B089803E6A3E503E2A010E3F6E0001F4
:101100001CEF02F00001EAD73DA009D0406A370E7B
:101110003F6E426A1F0E416E00018FD53D90F4D79D
:021120000300CA
:020000040030CA
:0E00000000E81E3C003F81000FC00FE00F40E3
:00000001FF
;PIC18F26K22
;CRC=EFF0  CREATED="25-abr.-24 00:51"
