:040000001FEF08F0F6
:08000800046ED8CF05F0E0CF33
:1000100006F00001E9CF0CF0EACF07F0E1CF08F0DD
:10002000E2CF09F0D9CF0AF0DACF0BF0F3CF12F01C
:10003000F4CF13F0FACF14F0F5CF15F0F6CF16F099
:10004000F7CF17F000C00EF001C00FF002C010F0A3
:1000500003C011F0F0A630EF00F0F0B0C9EF01F0EE
:100060009DAA36EF00F09EBA72EF01F00EC000F0CC
:100070000FC001F010C002F011C003F00CC0E9FF86
:1000800007C0EAFF078E08C0E1FF09C0E2FF0AC00F
:10009000D9FF0BC0DAFF12C0F3FF13C0F4FF14C086
:1000A000FAFF15C0F5FF16C0F6FF17C0F7FF0450A2
:1000B00006C0E0FF05C0D8FF1000000000000000EF
:1000C00090519219800B946F90AF05D08F1F901FA5
:1000D0008F2BD8B4902B92AF05D0911F921F912BEC
:1000E000D8B4922B8F519103F3CF01F0F4CF00F0ED
:1000F0009203F350002690519103F3500020026EBA
:1001000094AF05D0011E021E012AD8B4022AF4EFD2
:1001100000F08D6B8B6B0A0E8C6F8A6B896B87512D
:10012000881104E1000E016E026EDBD08D518D2B23
:100130008725E96E000E8821EA6EEFCF8EF08E5192
:100140002D080CE1010E8B6F8D518D2B8725E96EEB
:10015000000E8821EA6EEFCF8EF00CD08E512B0866
:1001600009E18D518D2B8725E96E000E8821EA6EFD
:10017000EFCF8EF08E512F08D8B0A5D08E51390810
:10018000D8A0A1D08E5130081EE18D518725E96E8F
:10019000000E8821EA6EEF50780809E08D5187251E
:1001A000E96E000E8821EA6EEF5058080CE1100E3F
:1001B0008C6F8D2B8D518D2B8725E96E000E88213C
:1001C000EA6EEFCF8EF08C510A0820E18E512F0895
:1001D0001CE28E51390819E3906B0A0E8F6F8AC0AA
:1001E00092F089C091F06CD7300E8E5D0124896F3A
:1001F000000E02208A6F8D518D2B8725E96E000E2F
:100200008821EA6EEFCF8EF0E1D75DD08C511008D7
:100210005AE18E51600806E28E517A0803E38E514E
:10022000DF0B01D08E518E6F8E512F0803E28E515D
:10023000390806E28E51400846E28E51460843E3F3
:100240008E512F0817E28E51390814E389358F6FCC
:100250008A35906F8F3790378F3790378F37903739
:10026000F00E8F17300E8E5D8F25896F000E902156
:100270008A6F14D089358F6F8A35906F8F3790379A
:100280008F3790378F379037F00E8F17410E8E5D76
:100290000A0F8F25896F000E90218A6F8D518D2B4B
:1002A0008725E96E000E8821EA6EEFCF8EF08E5121
:1002B000600806E28E517A0803E38E51DF0B01D00D
:1002C0008E518E6FB1D78C510A0807E18B2D05D066
:1002D000891F8A1F892BD8B48A2B89C001F08AC054
:1002E00002F012009EAAFED7AECF86F086512A08F1
:1002F0004DE1EA6A3E0EE96EED6A9EAAFED7AECFE8
:10030000ECFF0D0EEF5CF9E1EC6AEA6A460EE96E6D
:10031000ED6A9EAAFED7AECFECFF0D0EEF5CF9E1C1
:10032000EC6AEA6A4E0EE96EED6A9EAAFED7AECF7F
:10033000ECFF0D0EEF5CF9E1EC6AEA6A530EE96E30
:10034000ED6A9EAAFED7AECFECFF0D0EEF5CF9E191
:10035000EC6A886B3E0E876FDCDE02C038F001C0AD
:1003600037F0886B460E876FD4DE02C03AF001C0CA
:1003700039F0886B4E0E876FCCDE01C03BF0886B86
:10038000530E876FC6DE01C03CF03D809E9A36EF6B
:1003900000F0000EF1BA010E010AF19AE8B0F18AFC
:1003A000000E3DB2010E010A3D92E8B03D828990F7
:1003B0003DB28980F09036EF00F0926A020E936EA3
:1003C000C00E946E9F8A9D8AD08EF18AF086F26E5E
:1003D0006CEF08F05F506103F3CF01F0F4CF00F051
:1003E0006203F350002660516103F3500020026E57
:1003F0001200040EBA6E4F0EBB6E0F01496B0C0E4D
:10040000576F5D6F666EBD6E5B6A5B5001082EE3D1
:100410005C6A5C50010828E30001606B5BC05FF020
:10042000626B0C0E616FD6DF02C05EF001C05DF042
:10043000606B5CC05FF0626B060E616FCBDF0150DA
:100440005D2602505E2259505D24E96E5A505E20AE
:10045000EA6EECCF03F0ED52EFCFE9FF03C0EAFF05
:10046000EF6A5C2A0F01D5D75B2ACFD7000171EF65
:1004700008F0EA6A590EE96EEF500EE0050E016EC3
:10048000006A002EFED7012EFBD72E0E006E002E26
:10049000FED700D0EF2EF2D786EF08F07651070B8B
:1004A000006E7631016E013201321F0E01160150CD
:1004B0007825E96E000E7921EA6E016A012A002A88
:1004C00001D00136002EFDD7775303E00150EF1223
:1004D00003D0011E0150EF161200020E6B25E96ECB
:1004E000000E6C21EA6EECCF6EF0ED52EFCF6DF0A6
:1004F0006DC076F0010E776F0F0E796F890E786FF1
:10050000CDDF6DC076F0776B0F0E796F920E786F3E
:10051000C5DF040E6B25E96E000E6C21EA6EECCF90
:100520006EF0ED52EFCF6DF06DC076F0010E776F8B
:100530000F0E796F890E786FB1DF6DC076F0776B33
:100540000F0E796F920E786FA9DF12008E0E006E7B
:100550006EC001F06DC002F0036A6EAF05D0011EDF
:10056000021E022A01E1012A015209E102C001F042
:10057000026A080E005E015202E1006A0AD0D890B9
:1005800001BE04D0023601360006F9D76EBF01D095
:10059000019E12007451D8B471D0006E7851D8B455
:1005A0006DD0002604E3810E002668E204D07F0EA1
:1005B000005E64E363E075C07CF079517C1B758F4D
:1005C000798F77517B03F4CF7EF076517A03F4CFA5
:1005D00003F0F3CF7DF07B03F3507E27F4507D23AF
:1005E000000E032277517A03F3507E27F4507D23C7
:1005F000000E026A0322022275517B03F3507D270D
:10060000F4500322000E022275517A03F3500326A0
:10061000F4500222000E016A012277517903F3504F
:100620007D27F4500322000E022201227651790325
:10063000F3500326F4500222000E01227551790373
:10064000F3500226F4500122002A01BE05D07D3766
:100650000336023601360006000E7DAF0AD0032AAB
:1006600002220122015005E1025003E1035001E1A1
:10067000002A7CBF018E7CAF019E04D0006A016A13
:10068000026A036A12007851D8B4A5D0846F7C51F5
:10069000D8B4A1D0845F05E37F0E8427D8B09BD067
:1006A00006D0810E845FD8A096D0D8B494D084C0F0
:1006B00000F0016A026A036A836B79C082F0828F5C
:1006C0007AC081F07BC080F0190E846F7F51805F0B
:1006D0000DE2010E815F0AE2825F08E2835F06E2BB
:1006E000832B822B812B7F51802728D07E51815FE5
:1006F00012E2010E825F0FE2835F0DE2832B822BF9
:100700007E5181277F51802719E3812B17E1822BAE
:1007100015E1832B13D07D518009825F0EE2010E1B
:10072000835F0BE2832B7D51800982277E518127D5
:10073000E9E3822BE7E1832BE5D70380842F01D007
:100740000BD0D8908037813782378337D8900336E3
:10075000023601368537BAD785A106D0D890013246
:1007600002320332853302D0000635E085BF1ED049
:10077000D89080378137823783377F51805F07E297
:10078000010E815F04E2825F02E2835F1AE37E5121
:10079000815F05E2010E825F02E2835F12E37D5119
:1007A0008009825F03E2010E835F0BE3032A09E104
:1007B000022A07E1012A05E1002A0DE00132023296
:1007C000033279C084F07D51841B84AF02D0018E46
:1007D00006D0019E04D0006A016A026A036A120010
:1007E000800ED8B2701B756B766B6CC074F0705154
:1007F000741B6B51D8B4DCD0736F006E6F51D8B4DA
:10080000E0D0735FD8B481D03DE370C079F0798FC8
:1008100071C078F072C077F0766BD8907933783306
:1008200077337633732FF8D774AF03D07581DDD06B
:10083000759173917589EA6A6E0EE96EE9D07599C2
:1008400074BF0AD073A113D07933783377337633FA
:10085000002AD8B4C5D00BD079BF0CD0D890763749
:100860007737783779370006D8B4BAD0F5D7758D91
:100870006BD0759D6CC074F06CAF02D0798FA9D02D
:10088000799FA7D06FC073F06FC000F06B51735F9A
:100890006CC079F0798F6DC078F06EC077F0766BB0
:1008A000D8907933783377337633732FF8D774AFA2
:1008B00003D075839AD075937391758BEA6A720E23
:1008C000E96EA6D0759B74BF0AD073A113D079339B
:1008D000783377337633002AD8B482D00BD079BFFF
:1008E0000CD0D89076377737783779370006D8B478
:1008F00077D0F5D7758F28D0759F70C074F070AF22
:1009000002D0798F66D0799F64D070C079F0798FEA
:1009100071C078F072C077F074AF04D0799F75859C
:1009200064D07595766B7391EA6A6E0EE96E70D03D
:1009300074BF1CD06CC074F073A106D079337833C7
:1009400077337633002A4CE076AF0BD0772B09E172
:10095000782B07E1792B05E1793378337733002A57
:100960003FE075BD86D775BFC7D71CD0800E791BF9
:1009700079AF04D03AD070C074F00AD06CC074F073
:10098000795306E1785304E1775302E1006A21D0FC
:1009900079BF08D0D8907637773778377937002EF7
:1009A000F7D71ED074AF02D0798F13D0799F11D0B2
:1009B0006FC000F070C079F071C078F072C077F04D
:1009C00008D06BC000F06CC079F06DC078F06EC0DC
:1009D00077F079C001F078C002F077C003F034D02E
:1009E000006A016A026A036A2FD0766B771F781F4C
:1009F000791F761F762B05E1772B03E1782B01E138
:100A0000792B75B115D775B356D775B58AD7B3D7C6
:100A1000EF50772705E3782B03E1792BD8B4738166
:100A2000ED52EF50782703E3792BD8B47381ED5260
:100A3000EF50EFBE01D0800A7927D8B0738175B925
:100A4000FED675BB3FD774D7120075C07CF07951C4
:100A50007C1B7CAF05D0D894D89075BFD8802FD0A0
:100A600075C07CF078C07DF074517D5F06E07CAF8E
:100A700026D0D850010AD86E22D079C07DF07551A9
:100A80007D5F06E07CAF1BD0D850010AD86E17D02E
:100A90007AC07DF076517D5F06E07CAF10D0D850F3
:100AA000010AD86E0CD07BC07DF077517D5F06E0E7
:100AB0007CAF05D0D850010AD86E01D0D890120072
:100AC0008E0E006E7451005E75C002F076C001F0AB
:100AD000028E005209E0D890025202E1015204E075
:100AE00002320132002EF7D775AF05D0011E021E6B
:100AF000012AD8B4022A0BEF06F0776B766B756B80
:100B0000746B70C07BF06FC07AF06EC079F06DC00E
:100B100078F09BDF01E202E1718112D070C077F0C2
:100B20006FC076F06EC075F06DC074F07B6B7A6B41
:100B3000796B786B8ADF04E371916E51800A6E6F76
:100B4000020E6B25E96E000E6C21EA6EECCF75F09B
:100B5000ED52EFCF74F0000E71B1010E74C076F05B
:100B6000776F0F0E796F890E786F98DC74C076F00E
:100B7000776B0F0E796F920E786F90DC040E6B25F9
:100B8000E96E000E6C21EA6EECCF75F0ED52EFCFFE
:100B900074F0000E71A1010E74C076F0776F0F0E25
:100BA000796F890E786F7ADC74C076F0776B0F0EF0
:100BB000796F920E786F72DC776B766B200E756FA3
:100BC000870E746F70C07BF06FC07AF06EC079F0E2
:100BD0006DC078F0DFDC03C077F002C076F001C0B2
:100BE00075F000C074F003C07BF002C07AF001C061
:100BF00079F000C078F07F6B7E6B480E7D6F850EBC
:100C00007C6F41DD03C077F002C076F001C075F063
:100C100000C074F055D702C073F001C072F06BC011
:100C2000E9FF6CC0EAFFECCF03F0ED52EFCFE9FF34
:100C300003C0EAFF7331036E7231026E0332023277
:100C40003F0E031602C0EFFF1200040E5B24E96E94
:100C5000000E5C20EA6EEF3C39D0050E5B24E96E95
:100C6000000E5C20EA6EEF3C31D05DC001F05EC04A
:100C700003F05EC06CF05DC06BF02FDC060E5D24EF
:100C8000016E000E5E20036E01C069F06A6F6C6F2A
:100C900001C06BF022DC0C0E5D24016E000E5E20A4
:100CA000036E01C069F06A6F6C6F01C06BF015DCF8
:100CB000120E5D24016E000E5E20036E01C069F00D
:100CC0006A6F6C6F01C06BF008DCB8D1050E5B2455
:100CD000E96E000E5C20EA6EEF506A6B696F040EDD
:100CE0005B24E96E000E5C20EA6EEF50695D676F71
:100CF000000E6A59686F5BC0E9FF5CC0EAFFECCF89
:100D00006AF0ED52EFCF69F06ABFA3D068C06EF011
:100D100067C06DF01BDC03C077F002C076F001C045
:100D200075F000C074F07B6B7A6B480E796F850E9E
:100D3000786F30DC03C06CF002C06BF001C06AF069
:100D400000C069F003C07BF002C07AF001C079F006
:100D500000C078F07F6B7E6B7F0E7D6F860E7C6FA0
:100D600092DC03C062F002C061F001C060F000C01C
:100D70005FF0776B766B756B800E746F62C07BF083
:100D800061C07AF060C079F05FC078F003DC03C026
:100D90006CF002C06BF001C06AF000C069F05BC08B
:100DA000E9FF5CC0EAFFECCF03F0ED52EFCF6DF04E
:100DB00003C06EF0A6EC02F06CC077F06BC076F06A
:100DC0006AC075F069C074F003C07BF002C07AF0AD
:100DD00001C079F000C078F0CAEC02F003C06CF0FA
:100DE00002C06BF001C06AF000C069F003C07BF084
:100DF00002C07AF001C079F000C078F07F6BFE0E7F
:100E00007E6F7F0E7D6F8D0E7C6F3DDCEACF6AF0CA
:100E1000E9CF69F0D88262C06EF061C06DF060C049
:100E20006CF05FC06BF003C072F002C071F001C0E3
:100E300070F000C06FF0D4DC6AC0EAFF69C0E9FF5F
:100E400003C066F002C065F001C064F000C063F04A
:100E5000A5D068C06EF067C06DF0A6EC02F003C0CC
:100E600077F002C076F001C075F000C074F07B6BC3
:100E70007A6B480E796F850E786FCAEC02F003C06A
:100E80006CF002C06BF001C06AF000C069F003C0F2
:100E90007BF002C07AF001C079F000C078F07F6B7F
:100EA0007E6B7F0E7D6F860E7C6F43EC03F003C07C
:100EB00066F002C065F001C064F000C063F0776BBB
:100EC000766B756B800E746F66C07BF065C07AF0D0
:100ED00064C079F063C078F0CAEC02F003C06CF033
:100EE00002C06BF001C06AF000C069F05BC0E9FFAE
:100EF0005CC0EAFFECCF03F0ED52EFCF6DF003C022
:100F00006EF0A6EC02F06CC077F06BC076F06AC0B1
:100F100075F069C074F003C07BF002C07AF001C0C4
:100F200079F000C078F0CAEC02F003C06CF002C0A7
:100F30006BF001C06AF000C069F003C07BF002C032
:100F40007AF001C079F000C078F07F6B7E6B7D6B2A
:100F50008E0E7C6F43EC03F0EACF6AF0E9CF69F0C4
:100F6000D88266C06EF065C06DF064C06CF063C07E
:100F70006BF003C072F002C071F001C070F000C0ED
:100F80006FF02EDC6AC0EAFF69C0E9FF03C062F0BF
:100F900002C061F001C060F000C05FF05DC001F010
:100FA0005EC003F05EC06CF05DC06BF062C070F0BC
:100FB00061C06FF060C06EF05FC06DF09EDD0C0E22
:100FC0005D24016E000E5E20036E01C069F06A6F41
:100FD0006C6F01C06BF062C070F061C06FF060C0F8
:100FE0006EF05FC06DF089DD060E5D24016E000EAF
:100FF0005E20036E01C069F06A6F6C6F01C06BF018
:1010000066C070F065C06FF064C06EF063C06DF0D4
:1010100074DD120E5D24016E000E5E20036E01C0B1
:1010200069F06A6F6C6F01C06BF066C070F065C0EC
:101030006FF064C06EF063C06DF05FDD1200F86A9F
:10104000D09E078E700ED36E9B9C9B9EB886A00E82
:10105000AF6E010EB06EA60EAC6E900EAB6E0F01B1
:10106000386B396B3A6B776A786A796A13D0020009
:1010700019000018001FBE0F0B7C0C7C670F0E7C44
:101080000F7C5E0F047C057C580F067C077C0100FA
:101090003D000000000EF86E100EF76E6E0EF66E3C
:1010A0000900F550006E000A13E00900F550016ECA
:1010B000E8BE05D03F0BEA6E0900F5CFE9FF01BCA1
:1010C000090001AC0900F5CFEEFF004EE9D7F9D7D2
:1010D000F86A0001DDEF01F05A6A1F0E596EF9EF50
:1010E00001F0586A3DB214D05850C80808E1000E0B
:1010F00089B0010E010A8990E8B08980586A585079
:10110000582A010E596E000139EF02F00001EAD7AA
:101110003DB20FD0000E036EBA0E596E03C05AF0E6
:1011200003C05CF05B6E5E6A1F0E5D6E00018DDDBC
:10113000D8D73DA009D05C6A370E5B6E5E6A1F0E81
:0C1140005D6E000182DD3D90E3D70300EE
:020000040030CA
:0E00000000E81E3C00BF81000FC00FE00F4063
:00000001FF
;PIC18F26K22
;CRC=2E25  CREATED="15-abr.-24 00:22"
