:0400000006EF02F015
:08000800046ED8CF05F0E0CF33
:1000100006F00001E9CF0CF0EACF07F0E1CF08F0DD
:10002000E2CF09F0D9CF0AF0DACF0BF0F3CF12F01C
:10003000F4CF13F0FACF14F0F5CF15F0F6CF16F099
:10004000F7CF17F000C00EF001C00FF002C010F0A3
:1000500003C011F0F2AA30EF00F0F2B4CEEF01F0DD
:100060009DAA36EF00F09EBA6FEF01F00EC000F0CF
:100070000FC001F010C002F011C003F00CC0E9FF86
:1000800007C0EAFF078E08C0E1FF09C0E2FF0AC00F
:10009000D9FF0BC0DAFF12C0F3FF13C0F4FF14C086
:1000A000FAFF15C0F5FF16C0F6FF17C0F7FF0450A2
:1000B00006C0E0FF05C0D8FF10006A516C19800B24
:1000C0006E6F6AAF05D0691F6A1F692BD8B46A2B9F
:1000D0006CAF05D06B1F6C1F6B2BD8B46C2B6951A8
:1000E0006B03F3CF01F0F4CF00F06C03F350002664
:1000F0006A516B03F3500020026E6EAF05D0011EF3
:10010000021E012AD8B4022AF1EF00F0676B656B7A
:100110000A0E666F646B636B6151621104E1000E3D
:10012000016E026EDBD06751672B6125E96E000E10
:100130006221EA6EEFCF68F068512D080CE1010EE4
:10014000656F6751672B6125E96E000E6221EA6ECB
:10015000EFCF68F00CD068512B0809E16751672B8D
:100160006125E96E000E6221EA6EEFCF68F06851FA
:100170002F08D8B0A5D068513908D8A0A1D06851AF
:1001800030081EE167516125E96E000E6221EA6EBA
:10019000EF50780809E067516125E96E000E622191
:1001A000EA6EEF5058080CE1100E666F672B67512E
:1001B000672B6125E96E000E6221EA6EEFCF68F0D1
:1001C00066510A0820E168512F081CE2685139087D
:1001D00019E36A6B0A0E696F64C06CF063C06BF060
:1001E0006CD7300E685D0124636F000E0220646FCF
:1001F0006751672B6125E96E000E6221EA6EEFCF31
:1002000068F0E1D75DD0665110085AE16851600886
:1002100006E268517A0803E36851DF0B01D06851A8
:10022000686F68512F0803E26851390806E2685187
:10023000400846E26851460843E368512F0817E238
:100240006851390814E36335696F64356A6F69373B
:100250006A3769376A3769376A37F00E6917300EBF
:10026000685D6925636F000E6A21646F14D0633581
:10027000696F64356A6F69376A3769376A37693712
:100280006A37F00E6917410E685D0A0F6925636FC2
:10029000000E6A21646F6751672B6125E96E000EBD
:1002A0006221EA6EEFCF68F06851600806E268519B
:1002B0007A0803E36851DF0B01D06851686FB1D74A
:1002C00066510A0807E1652D05D0631F641F632B83
:1002D000D8B4642B63C001F064C002F012009EAA7F
:1002E000FED7AECF46F046502A0850E1EA6A470EE4
:1002F000E96EED6A9EAAFED7AECFECFF0D0EEF5C65
:10030000F9E1EC6AEA6A4F0EE96EED6A9EAAFED741
:10031000AECFECFF0D0EEF5CF9E1EC6AEA6A570E26
:10032000E96EED6A9EAAFED7AECFECFF0D0EEF5C34
:10033000F9E1EC6AEA6A5C0EE96EED6A9EAAFED704
:10034000AECFECFF0D0EEF5CF9E1EC6A626B470E8D
:10035000616FDCDE02C038F001C037F0626B4F0E17
:10036000616FD4DE02C03AF001C039F0626B570E03
:10037000616FCCDE01C03BF0626B5C0E616FC6DE6C
:1003800001C03CF089803D843D803D929E9A36EFCD
:1003900000F09EA8FED7AD6ED4EF01F03DA202D0D2
:1003A00089903D942A0EF5D73D823C0ED76EAF0E54
:1003B000D66EF29436EF00F0926A936A946A9F8A3E
:1003C0009D8AD08EE00EF26E3C0ED76EAF0ED66ECA
:1003D000820ED56E52EF02F0040EBA6E270EBB6E7F
:1003E0000F01496B0C0E576F5D6F666EBD6E00019D
:1003F00053EF02F04250435C01E306D04250435CAD
:1004000001E202D0423C00D068EF02F0F86AD09ED0
:10041000078E700ED36E9B9C9B9EB886A00EAF6E0F
:10042000010EB06EA60EAC6E900EAB6E0F01386B67
:10043000396B3A6B776A786A796A13D002001900CF
:100440000018001FBE0F097C0A7C670F0B7C0C7C18
:100450005E0F0D7C0E7C580F137C147C01003D0058
:100460000000000EF86E040EF76E3C0EF66E0900EA
:10047000F550006E000A13E00900F550016EE8BE69
:1004800005D03F0BEA6E0900F5CFE9FF01BC09007A
:1004900001AC0900F5CFEEFF004EE9D7F9D7F86AB5
:1004A00000018AD799D73DB401D014D03DA011D016
:1004B00037C03EF038C03FF039C040F03AC041F09C
:1004C0003BC042F03CC043F0456A1F0E446E92D7D9
:0604D0003D90E9D7030096
:020000040030CA
:0E00000000E81E3C003B81000FC00FE00F40E7
:00000001FF
;PIC18F26K22
;CRC=74E1  CREATED="12-abr.-24 21:46"
