:0400000007EF08F00E
:08000800046ED8CF05F0E0CF33
:1000100006F00001E9CF0CF0EACF07F0E1CF08F0DD
:10002000E2CF09F0D9CF0AF0DACF0BF0F3CF12F01C
:10003000F4CF13F0FACF14F0F5CF15F0F6CF16F099
:10004000F7CF17F000C00EF001C00FF002C010F0A3
:1000500003C011F09DAA30EF00F09EBAE4EF03F068
:100060000EC000F00FC001F010C002F011C003F08C
:100070000CC0E9FF07C0EAFF078E08C0E1FF09C016
:10008000E2FF0AC0D9FF0BC0DAFF12C0F3FF13C0B2
:10009000F4FF14C0FAFF15C0F5FF16C0F6FF17C035
:1000A000F7FF045006C0E0FF05C0D8FF10009151D3
:1000B000D8B471D0006E9551D8B46DD0002604E349
:1000C000810E002668E204D07F0E005E64E363E0E8
:1000D00092C099F09651991B928F968F94519803E4
:1000E000F4CF9BF093519703F4CF03F0F3CF9AF042
:1000F0009803F3509B27F4509A23000E0322945147
:100100009703F3509B27F4509A23000E026A0322B0
:10011000022292519803F3509A27F4500322000EC2
:10012000022292519703F3500326F4500222000E4C
:10013000016A012294519603F3509A27F450032246
:10014000000E0222012293519603F3500326F4502D
:100150000222000E012292519603F3500226F4501F
:100160000122002A01BE05D09A3703360236013635
:100170000006000E9AAF0AD0032A02220122015083
:1001800005E1025003E1035001E1002A99BF018E0D
:1001900099AF019E04D0006A016A026A036A1200E4
:1001A0008E0E006E96C001F095C002F0036A0152F7
:1001B00009E102C001F0026A080E005E015202E18C
:1001C000006A08D0D89001BE04D00236013600067D
:1001D000F9D7019E12009551D8B4A5D0A16F9951BD
:1001E000D8B4A1D0A15F05E37F0EA127D8B09BD0E2
:1001F00006D0810EA15FD8A096D0D8B494D0A1C06B
:1002000000F0016A026A036AA06B96C09FF09F8F9C
:1002100097C09EF098C09DF0190EA16F9C519D5FF4
:100220000DE2010E9E5F0AE29F5F08E2A05F06E218
:10023000A02B9F2B9E2B9C519D2728D09B519E5FCE
:1002400012E2010E9F5F0FE2A05F0DE2A02B9F2B39
:100250009B519E279C519D2719E39E2B17E19F2BB5
:1002600015E1A02B13D09A5180099F5F0EE2010E79
:10027000A05F0BE2A02B9A5180099F279B519E27DC
:10028000E9E39F2BE7E1A02BE5D70380A12F01D065
:100290000BD0D8909D379E379F37A037D890033624
:1002A00002360136A237BAD7A2A106D0D8900132C1
:1002B00002320332A23302D0000635E0A2BF1ED0C4
:1002C000D8909D379E379F37A0379C519D5F07E29E
:1002D000010E9E5F04E29F5F02E2A05F1AE39B5162
:1002E0009E5F05E2010E9F5F02E2A05F12E39A515A
:1002F00080099F5F03E2010EA05F0BE3032A09E17F
:10030000022A07E1012A05E1002A0DE0013202324A
:10031000033296C0A1F09A51A11BA1AF02D0018E69
:1003200006D0019E04D0006A016A026A036A1200C4
:10033000800ED8B29A1B9F6BA06B96C09EF09A510C
:100340009E1B9551D8B4DCD09D6F006E9951D8B4E6
:10035000E0D09D5FD8B481D03DE39AC0A3F0A38FD5
:100360009BC0A2F09CC0A1F0A06BD890A333A23395
:10037000A133A0339D2FF8D79EAF03D09F81DDD04E
:100380009F919D919F89EA6A980EE96EE9D09F99A5
:100390009EBF0AD09DA113D0A333A233A133A033B3
:1003A000002AD8B4C5D00BD0A3BF0CD0D890A037AA
:1003B000A137A237A3370006D8B4BAD0F5D79F8D9E
:1003C0006BD09F9D96C09EF096AF02D0A38FA9D010
:1003D000A39FA7D099C09DF099C000F095519D5F53
:1003E00096C0A3F0A38F97C0A2F098C0A1F0A06B15
:1003F000D890A333A233A133A0339D2FF8D79EAF5B
:1004000003D09F839AD09F939D919F8BEA6A9C0E05
:10041000E96EA6D09F9B9EBF0AD09DA113D0A333A7
:10042000A233A133A033002AD8B482D00BD0A3BF0B
:100430000CD0D890A037A137A237A3370006D8B484
:1004400077D0F5D79F8F28D09F9F9AC09EF09AAF04
:1004500002D0A38F66D0A39F64D09AC0A3F0A38FCD
:100460009BC0A2F09CC0A1F09EAF04D0A39F9F852B
:1004700064D09F95A06B9D91EA6A980EE96E70D04A
:100480009EBF1CD096C09EF09DA106D0A333A23380
:10049000A133A033002A4CE0A0AF0BD0A12B09E17F
:1004A000A22B07E1A32B05E1A333A233A133002A3A
:1004B0003FE09FBD86D79FBFC7D71CD0800EA31B30
:1004C000A3AF04D03AD09AC09EF00AD096C09EF056
:1004D000A35306E1A25304E1A15302E1006A21D033
:1004E000A3BF08D0D890A037A137A237A337002EDA
:1004F000F7D71ED09EAF02D0A38F13D0A39F11D0E9
:1005000099C000F09AC0A3F09BC0A2F09CC0A1F0DB
:1005100008D095C000F096C0A3F097C0A2F098C094
:10052000A1F0A3C001F0A2C002F0A1C003F034D03A
:10053000006A016A026A036A2FD0A06BA11FA21F82
:10054000A31FA01FA02B05E1A12B03E1A22B01E11A
:10055000A32B9FB115D79FB356D79FB58AD7B3D7D3
:10056000EF50A12705E3A22B03E1A32BD8B49D8173
:10057000ED52EF50A22703E3A32BD8B49D81ED5297
:10058000EF50EFBE01D0800AA327D8B09D819FB95C
:10059000FED69FBB3FD774D71200896B886B876BE1
:1005A0007F0E866F8D6B8C6B8B6B8A6B8E818E93BF
:1005B0008E95906B8251831105E1006A016A026A8F
:1005C000036A01D19051902B8225E96E000E8321A0
:1005D000EA6EEFCF8FF08F53D8B4BAD08EA10FD080
:1005E0008F5120080CE08E918F512B0803E18E93E0
:1005F000A5D005D08F512D0802E18E839FD08EB1FA
:1006000007D08F512E0804E18EB502D08E8596D08A
:100610008EB191D08F512F08D8B08DD08F5139081D
:10062000D8A089D0300E8F5F8EA54FD089C094F0AE
:1006300088C093F087C092F086C091F0986B976B5A
:10064000200E966F820E956F32DD03C089F002C0D6
:1006500088F001C087F000C086F0966B8FC095F0DF
:100660009FDD03C094F002C093F001C092F000C07F
:1006700091F003C098F002C097F001C096F000C05E
:1006800095F089C09CF088C09BF087C09AF086C026
:1006900099F0A1DDD8928DC098F08CC097F08BC0F6
:1006A00096F08AC095F003C09CF002C09BF001C098
:1006B0009AF000C099F03CDE03C08DF002C08CF0CF
:1006C00001C08BF000C08AF035D0946B936B200E84
:1006D000926F820E916F8DC098F08CC097F08BC096
:1006E00096F08AC095F0E3DC03C094F002C093F06A
:1006F00001C092F000C091F0966B8FC095F050DD74
:10070000D89294C098F093C097F092C096F091C0A0
:1007100095F003C09CF002C09BF001C09AF000C0AD
:1007200099F006DE03C08DF002C08CF001C08BF0A2
:1007300000C08AF003D08EB101D00AD09051902B26
:100740008225E96E000E8321EA6EEFCF8FF043D74A
:100750008EA317D0946B936B800E926F7F0E916F68
:100760008DC098F08CC097F08BC096F08AC095F041
:100770009EDC03C08DF002C08CF001C08BF000C085
:100780008AF08451851117E090530CE0900784C0E3
:10079000E9FF85C0EAFF90518225EF6E000E8321AC
:1007A000EC6E09D084C0E9FF85C0EAFF83C0ECFF8E
:1007B000ED5282C0EFFF8AC000F08BC001F08CC008
:1007C00002F08DC003F012009EAAFED7AECF6DF0EE
:1007D0006D512A0836E1EA6A6E0EE96EED6A9EAA4C
:1007E000FED7AECFECFF0D0EEF5CF9E1EC6AEA6AE2
:1007F000780EE96EED6A9EAAFED7AECFECFF0D0E25
:10080000EF5CF9E1EC6A836B6E0E826F856B846B33
:10081000C4DE03C03BF002C03AF001C039F000C0B2
:1008200038F0836B780E826F856B846BB6DE03C005
:100830003FF002C03EF001C03DF000C03CF04082FD
:1008400040809E9A30EF00F0926A020E936E800E06
:10085000946EC00EF26E9F8A9D8AD08E54EF08F07F
:1008600048504A02F3CF01F0F4CF00F04B02F350AE
:10087000002649504A02F3500020026E1200040E76
:10088000BA6E4F0EBB6E0F01496B0C0E576F5D6F4A
:10089000666EBD6E446A445001082EE3456A4550B9
:1008A000010828E3496A44C048F04B6A0C0E4A6EBE
:1008B0000001D6DF02C047F001C046F0496A45C0DA
:1008C00048F04B6A060E4A6ECBDF015046260250B6
:1008D000472242504624E96E43504720EA6EECCF4F
:1008E00003F0ED52EFCFE9FF03C0EAFFEF6A452ABC
:1008F0000F01D5D7442ACFD7000159EF08F0EA6A93
:10090000420EE96EEF500EE0050E016E006A002EF9
:10091000FED7012EFBD72E0E006E002EFED700D084
:10092000EF2EF2D76DEF08F05AC061F05E50611BF8
:1009300061AF05D0D894D8905ABED8802FD05AC075
:1009400061F05DC062F05950625F06E061AF26D091
:10095000D850010AD86E22D05EC062F05A50625F51
:1009600006E061AF1BD0D850010AD86E17D05FC027
:1009700062F05B50625F06E061AF10D0D850010AB0
:10098000D86E0CD060C062F05C50625F06E061AF70
:1009900005D0D850010AD86E01D0D89012005B5013
:1009A000070B006E5B30016E013201321F0E011623
:1009B00001505D24E96E000E5E20EA6E016A012A94
:1009C000002A01D00136002EFDD75C5203E0015011
:1009D000EF1203D0011E0150EF1612008E0E006EB2
:1009E0005950005E5AC002F05BC001F0028E005206
:1009F00009E0D890025202E1015204E002320132D1
:100A0000002EF7D75AAE05D0011E021E012AD8B417
:100A1000022AC1EF05F05C6A5B6A5A6A596A55C0DE
:100A200060F054C05FF053C05EF052C05DF07CDFF8
:100A300001E202E1010E01D0000E5690E8B05680AE
:100A4000020E5024E96E000E5120EA6EECCF5AF0EF
:100A5000ED52EFCF59F0000E56B0010E59C05BF0C9
:100A60005C6E0F0E5E6E890E5D6E99DF59C05BF095
:100A70005C6A0F0E5E6E920E5D6E91DF040E502466
:100A8000E96E000E5120EA6EECCF5AF0ED52EFCF36
:100A900059F0000E56A0010E59C05BF05C6E0F0EAF
:100AA0005E6E890E5D6E7BDF59C05BF05C6A0F0E77
:100AB0005E6E920E5D6E73DF52C000F053C001F0A7
:100AC00054C002F055C003F0019E196AF2BE198E9F
:100AD000F29E946B800E936F1F0E926F870E916F34
:100AE00055C098F054C097F001C096F052C095F0F0
:100AF00057EC00F019BEF28E03C05CF002C05BF050
:100B000001C05AF000C059F0196AF2BE198EF29E67
:100B100003C098F002C097F001C096F000C095F0B5
:100B20009C6B9B6B480E9A6F850E996FEBEC00F0F7
:100B300019BEF28E03C05CF002C05BF001C05AF037
:100B400000C059F0D892196AF2BE198EF29E03C005
:100B500098F002C097F001C096F000C095F09C6B31
:100B60009B6B9A6B7F0E996F98EC01F019BEF28E19
:100B700003C05CF002C05BF001C05AF000C059F045
:100B80002DD702C058F001C057F050C0E9FF51C046
:100B9000EAFFECCF03F0ED52EFCFE9FF03C0EAFF2D
:100BA0005830036E5730026E033202323F0E031686
:100BB00002C0EFFF12004250E96E43C0EAFFEFCFE0
:100BC0004EF0ECCF01F0ECCF50F0ECCF51F04EC036
:100BD00000F050C002F051C003F0019E51C05CF023
:100BE00050C05BF001C04FF04EC059F001C05AF048
:100BF000606B5F6A5E6A800E5D6E96DE0DE34D6A25
:100C00004C6A4B6A4A6A4DC049F04CC048F04BC030
:100C100047F04AC046F0A9D1040E4224E96E000E06
:100C20004320EA6EEFCF5DF0ECCF5EF0ECCF5FF0EB
:100C3000ECCF60F05C6A5B6A5A6A596A75DE02E260
:100C4000D8A4CAD042C0E9FF43C0EAFF196AF2BE85
:100C5000198EF29EEFCF91F0ECCF92F0ECCF93F0A3
:100C6000ECCF94F0986B976B480E966F850E956F4E
:100C700057EC00F019BEF28E03C051F002C050F0E4
:100C800001C04FF000C04EF0196AF2BE198EF29EFC
:100C900003C098F002C097F001C096F000C095F034
:100CA0009C6B9B6B280E9A6F820E996FEBEC00F099
:100CB00019BEF28E03C04DF002C04CF001C04BF0E3
:100CC00000C04AF0196AF2BE198EF29E946B936BC3
:100CD000926B800E916F4DC098F04CC097F04BC056
:100CE00096F04AC095F057EC00F019BEF28E03C0A2
:100CF00051F002C050F001C04FF000C04EF0040EA1
:100D00004224E96E000E4320EA6E196AF2BE198E83
:100D1000F29EEFCF95F0ECCF96F0ECCF97F0ECCFC2
:100D200098F09C6B9B6B280E9A6F820E996FEBEC80
:100D300000F019BEF28E03C055F002C054F001C09D
:100D400053F000C052F000C095F001C001F002C0A5
:100D500002F003C003F0019E196AF2BE198EF29EE2
:100D600051C094F050C093F04FC092F04EC091F03B
:100D700003C098F002C097F001C096F057EC00F065
:100D800019BEF28EEACF4FF0E9CF4EF0D882196A41
:100D9000F2BE198EF29E4DC098F04CC097F04BC039
:100DA00096F04AC095F003C09CF002C09BF001C0D1
:100DB0009AF000C099F098EC01F019BEF28E4FC085
:100DC000EAFF4EC0E9FF03C049F002C048F001C08D
:100DD00047F000C046F0C9D042C0E9FF43C0EAFF77
:100DE000196AF2BE198EF29EEFCF91F0ECCF92F01D
:100DF000ECCF93F0ECCF94F0986B976B480E966F16
:100E0000850E956F57EC00F019BEF28E03C051F0BD
:100E100002C050F001C04FF000C04EF0196AF2BE9F
:100E2000198EF29E03C098F002C097F001C096F0B0
:100E300000C095F09C6B9B6B280E9A6F820E996F89
:100E4000EBEC00F019BEF28E03C049F002C048F08E
:100E500001C047F000C046F0196AF2BE198EF29E3A
:100E6000946B936B926B800E916F49C098F048C061
:100E700097F047C096F046C095F057EC00F019BEC9
:100E8000F28E03C051F002C050F001C04FF000C01C
:100E90004EF0040E4224E96E000E4320EA6E196AF9
:100EA000F2BE198EF29EEFCF95F0ECCF96F0ECCF1C
:100EB00097F0ECCF98F09C6B9B6B280E9A6F820E8C
:100EC000996FEBEC00F019BEF28E03C055F002C032
:100ED00054F001C053F000C052F000C095F001C0C2
:100EE00001F002C002F003C003F0019E196AF2BED5
:100EF000198EF29E51C094F050C093F04FC092F002
:100F00004EC091F003C098F002C097F001C096F077
:100F100057EC00F019BEF28EEACF4FF0E9CF4EF059
:100F2000D882196AF2BE198EF29E49C098F048C064
:100F300097F047C096F046C095F003C09CF002C001
:100F40009BF001C09AF000C099F098EC01F019BE36
:100F5000F28E4FC0EAFF4EC0E9FF03C04DF002C061
:100F60004CF001C04BF000C04AF044C001F045C055
:100F700003F045C051F044C050F049C055F048C09E
:100F800054F047C053F046C052F045DD0C0E4424E7
:100F9000016E000E4520036E01C04EF04F6E516E83
:100FA00001C050F049C055F048C054F047C053F05C
:100FB00046C052F030DD060E4424016E000E45207E
:100FC000036E01C04EF04F6E516E01C050F04DC027
:100FD00055F04CC054F04BC053F04AC052F01BDDEA
:100FE000120E4424016E000E4520036E01C04EF027
:100FF0004F6E516E01C050F04DC055F04CC054F0D2
:101000004BC053F04AC052F006DD79EF08F0F86AA1
:10101000D09E078E700ED36E9B9C9B9EB886A00EB2
:10102000AF6E010EB06EA60EAC6E900EAB6E0F01E1
:10103000386B396B3A6B776A786A796A13D0020039
:101040001A0000180020BE0F0B7C0C7C670F0E7C72
:101050000F7C5E0F047C057C580F067C077C01002A
:1010600040000000000EF86E100EF76E3E0EF66E99
:101070000900F550006E000A13E00900F550016EFA
:10108000E8BE05D03F0BEA6E0900F5CFE9FF01BCD1
:10109000090001AC0900F5CFEEFF004EE9D7F9D702
:1010A000F86A000124EF04F0436A200E426E3FEF1D
:1010B00004F0416A40B213D04150C80808E1000E64
:1010C00089B0010E010A8990E8B08980416A4150D7
:1010D000412A010E426E000112D40001EBD740A05C
:1010E00009D0436A380E426E456A200E446E0001F4
:0810F00062D54090F4D7030023
:020000040030CA
:0E00000000E81E3C003F81000FC00FE00F40E3
:00000001FF
;PIC18F26K22
;CRC=E563  CREATED="25-abr.-24 01:47"
