:1000000066EF01F08E0E006E08C001F007C002F02E
:10001000036A0152D8A419EF00F002C001F0026A8D
:10002000080E005E0152D8A419EF00F0006A23EF19
:1000300000F0D89001BE22EF00F002360136000633
:1000400019EF00F0019E12000750D8B4A5D0136E2E
:100050000B50D8B4A1D0135E05E37F0E1326D8B0A1
:100060009BD006D0810E135ED8A096D0D8B494D081
:1000700013C000F0016A026A036A126A08C011F034
:10008000118E09C010F00AC00FF0190E136E0E5039
:100090000F5E0DE2010E105E0AE2115E08E2125ED2
:1000A00006E2122A112A102A0E500F2628D00D50CF
:1000B000105E12E2010E115E0FE2125E0DE2122AD4
:1000C000112A0D5010260E500F2619E3102A17E1A1
:1000D000112A15E1122A13D00C508009115E0EE28C
:1000E000010E125E0BE2122A0C50800911260D50EF
:1000F0001026E9E3112AE7E1122AE5D70380132E3F
:1001000001D00BD0D8900F36103611361236D89059
:100110000336023601361436BAD714A006D0D8906A
:10012000013202320332143202D0000635E014BE2E
:100130001ED0D8900F361036113612360E500F5E84
:1001400007E2010E105E04E2115E02E2125E1AE3A3
:100150000D50105E05E2010E115E02E2125E12E326
:100160000C508009115E03E2010E125E0BE3032ABC
:1001700009E1022A07E1012A05E1002A0DE0013226
:100180000232033208C013F00C50131A13AE02D01F
:10019000018E06D0019E04D0006A016A026A036AD9
:1001A00012000B50D8B471D0006E0F50D8B46DD07F
:1001B000002604E3810E002668E204D07F0E005E74
:1001C00064E363E00CC013F01050131A0C8E108E11
:1001D0000E501202F4CF15F00D501102F4CF03F0BF
:1001E000F3CF14F01202F3501526F4501422000E2F
:1001F00003220E501102F3501526F4501422000E63
:10020000026A032202220C501202F3501426F45008
:100210000322000E02220C501102F3500326F45068
:100220000222000E016A01220E501002F350142621
:10023000F4500322000E022201220D501002F3504E
:100240000326F4500222000E01220C501002F3503B
:100250000226F4500122002A01BE05D014360336CE
:10026000023601360006000E14AE0AD0032A02221E
:100270000122015005E1025003E1035001E1002A8F
:1002800013BE018E13AE019E04D0006A016A026A99
:10029000036A12008E0E006E0750005E08C002F066
:1002A00009C001F0028E005209E0D890025202E12A
:1002B000015204E002320132002EF7D708AE05D019
:1002C000011E021E012AD8B4022A1200F86AD09E2A
:1002D0000F01386B396B3A6B776A786A796A070E67
:1002E000926E936A946A030EC26E800EC06E070E01
:1002F000BA6EF90EBB6E496B8C0E5D6F5DCF66FFFB
:1003000066CFBDFF030EC26E0D0E006E002EFED72F
:10031000C4CF08F0C3CF07F0000174DE03C00AF0B9
:1003200002C009F001C008F000C007F00E6AC00E5C
:100330000D6E7F0E0C6E880E0B6E86DE03C00AF00B
:1003400002C009F001C008F000C007F003C00EF0C1
:1003500002C00DF001C00CF000C00BF0126A116A6F
:100360007A0E106E880E0F6E1CDF03C00AF002C0FA
:1003700009F001C008F000C007F08CDF02C006F0F1
:1003800001C005F00630036E0530026E0332023202
:1003900002C0BEFF070EC26E0D0E006E002EFED70D
:1003A000C4CF08F0C3CF07F02DDE03C00AF002C0AF
:1003B00009F001C008F000C007F00E6AC00E0D6E13
:1003C0007F0E0C6E880E0B6E3FDE03C00AF002C07B
:1003D00009F001C008F000C007F003C00EF002C031
:1003E0000DF001C00CF000C00BF0126A116A7A0E19
:1003F000106E880E0F6ED5DE03C00AF002C009F041
:1004000001C008F000C007F045DF02C006F001C0DF
:1004100005F00630036E0530026E0332023202C070
:1004200067FF0B0EC26E0D0E006E002EFED7C4CFFE
:1004300008F0C3CF07F0E6DD03C00AF002C009F000
:1004400001C008F000C007F00E6AC00E0D6E7F0EEE
:100450000C6E880E0B6EF8DD03C00AF002C009F0C6
:1004600001C008F000C007F003C00EF002C00DF09C
:1004700001C00CF000C00BF0126A116A7A0E106E07
:10048000880E0F6E8EDE03C00AF002C009F001C0B4
:1004900008F000C007F0FEDE02C006F001C005F063
:1004A0000630036E0530026E0332023202C05EFF78
:0604B0000F0128D7030034
:020000040030CA
:0E00000000E21E3C001B81000FC00FE00F400D
:00000001FF
;PIC18F26K22
;CRC=886F  CREATED="25-mar.-24 13:56"
