:10000000F3EF01F0030E926E936A946AC26E800E53
:10001000C06E070EBA6EF90EBB6E0F01496B0C0E67
:10002000576F57CF5DFF5DCF66FF66CFBDFF000105
:100030002EEF02F02850070B006E2830016E0132BF
:1000400001321F0E011601502A24E96E000E2B20EA
:10005000EA6E016A012A002A01D00136002EFDD77E
:10006000295203E00150EF1203D0011E0150EF1698
:1000700012002250060DF350256A246E020E24262B
:10008000000E2522040E2424E96E000E2520EA6EBF
:10009000ECCF27F0ED52EFCF26F0235202E1000E15
:1000A00001D0010E26C028F0296E0F0E2B6E890E8E
:1000B0002A6EC0DF26C028F0296A0F0E2B6E920E22
:1000C0002A6EB8DF2250060DF350256A246E020E08
:1000D0002426000E2522020E2424016E000E252067
:1000E000036E0150040FE96E000E0320EA6EECCFA0
:1000F00025F0ED52EFCF24F0235202E0000E01D0A4
:10010000010E24C028F0296E0F0E2B6E890E2A6E68
:1001100091DF24C028F0296A0F0E2B6E920E2A6EF2
:1001200089DF12008E0E006E22C001F021C002F0A5
:10013000036A015209E102C001F0026A080E005E82
:10014000015202E1006A08D0D89001BE04D0023604
:1001500001360006F9D7019E48EF02F02150D8B4CD
:10016000A5D02D6E2550D8B4A1D02D5E05E37F0E0D
:100170002D26D8B09BD006D0810E2D5ED8A096D06B
:10018000D8B494D02DC000F0016A026A036A2C6AC8
:1001900022C02BF02B8E23C02AF024C029F0190E88
:1001A0002D6E2850295E0DE2010E2A5E0AE22B5EBA
:1001B00008E22C5E06E22C2A2B2A2A2A285029261D
:1001C00028D027502A5E12E2010E2B5E0FE22C5E31
:1001D0000DE22C2A2B2A27502A262850292619E3FB
:1001E0002A2A17E12B2A15E12C2A13D02650800940
:1001F0002B5E0EE2010E2C5E0BE22C2A26508009AB
:100200002B2627502A26E9E32B2AE7E12C2AE5D7DB
:1002100003802D2E01D00BD0D89029362A362B36CC
:100220002C36D8900336023601362E36BAD72EA099
:1002300006D0D8900132023203322E3202D00006AC
:1002400035E02EBE1ED0D89029362A362B362C36D5
:100250002850295E07E2010E2A5E04E22B5E02E2CC
:100260002C5E1AE327502A5E05E2010E2B5E02E2A5
:100270002C5E12E3265080092B5E03E2010E2C5EF9
:100280000BE3032A09E1022A07E1012A05E1002A1A
:100290000DE001320232033222C02DF026502D1A19
:1002A0002DAE02D0018E06D0019E04D0006A016AF4
:1002B000026A036A58EF02F02550D8B471D0006E7C
:1002C0002950D8B46DD0002604E3810E002668E2E0
:1002D00004D07F0E005E64E363E026C02DF02A5058
:1002E0002D1A268E2A8E28502C02F4CF2FF027505C
:1002F0002B02F4CF03F0F3CF2EF02C02F3502F2675
:10030000F4502E22000E032228502B02F3502F26E9
:10031000F4502E22000E026A0322022226502C02E2
:10032000F3502E26F4500322000E022226502B02F8
:10033000F3500326F4500222000E016A01222850D5
:100340002A02F3502E26F4500322000E022201222C
:1003500027502A02F3500326F4500222000E0122F5
:1003600026502A02F3500226F4500122002A01BE30
:1003700005D02E360336023601360006000E2EAEAC
:100380000AD0032A02220122015005E1025003E1B2
:10039000035001E1002A2DBE018E2DAE019E04D036
:1003A000006A016A026A036A6FEF02F08E0E006E45
:1003B0002150005E22C002F023C001F0028E0052E4
:1003C00009E0D890025202E1015204E00232013207
:1003D000002EF7D722AE05D0011E021E012AD8B486
:1003E000022A78EF02F0F86AD09E0F01386B396B61
:1003F0003A6B776A786A796ABE0E046E0F0E056EE4
:10040000090E066E7C0E076E0A0E086E7C0E096ED3
:10041000670E0A6E0F0E0B6E0B0E0C6E7C0E0D6EC1
:100420000C0E0E6E7C0E0F6E5E0E106E0F0E116EA9
:100430000D0E126E7C0E136E0E0E146E7C0E156E6B
:10044000580E166E0F0E176E130E186E7C0E196E68
:10045000140E1A6E7C0E1B6E0001D4D51C901F6A00
:100460001F5003080AE3000E1CB0010E216E1FC0CE
:1004700022F0236EFEDD1F2AF3D7030EC26E0D0E8F
:10048000006E002EFED7C4CF22F0C3CF21F04AD693
:1004900003C024F002C023F001C022F000C021F00C
:1004A000286AC00E276E7F0E266E880E256E56D6E1
:1004B00003C024F002C023F001C022F000C021F0EC
:1004C00003C028F002C027F001C026F000C025F0CC
:1004D0002C6A2B6A7A0E2A6E880E296EEDD603C01E
:1004E00024F002C023F001C022F000C021F05ED74A
:1004F00002C01EF001C01DF0206A2050030827E34F
:100500002050060DF350036A040F016E000E032203
:1005100001C021F003C022F003C0EAFF01C0E9FFDF
:10052000ECCF24F0ED52EFCF23F023C0E9FF24C03D
:10053000EAFF1E30036E1D30026E033202323F0EA0
:10054000031602C0EFFF03C0ECFF202AD6D780A21B
:100550002BD080B2FED7000E1CB0010E010A1C90F9
:10056000E8B01C80000E1CB0010E216E226A236EC2
:1005700080DD000E1CB0010E216E010E226E21C026
:1005800023F077DD000E1CB0010E216E020E226EEC
:1005900021C023F06EDD000E1CB0010E216E030E93
:0C05A000226E21C023F065DD68D7030047
:020000040030CA
:0E00000000E21E3C003B81000FC00FE00F40ED
:00000001FF
;PIC18F26K22
;CRC=9DBD  CREATED="02-abr.-24 21:33"
